{
  "contractName": "MakerAdapter",
  "abi": [
    {
      "inputs": [
        {
          "internalType": "contract ConditionalTokens",
          "name": "_cTokens",
          "type": "address"
        }
      ],
      "stateMutability": "nonpayable",
      "type": "constructor"
    },
    {
      "anonymous": false,
      "inputs": [
        {
          "indexed": false,
          "internalType": "uint256",
          "name": "resolutionTime",
          "type": "uint256"
        },
        {
          "indexed": false,
          "internalType": "uint256",
          "name": "currentTime",
          "type": "uint256"
        },
        {
          "indexed": false,
          "internalType": "uint256[]",
          "name": "result",
          "type": "uint256[]"
        }
      ],
      "name": "ResolutionSuccessful",
      "type": "event"
    },
    {
      "inputs": [],
      "name": "cTokens",
      "outputs": [
        {
          "internalType": "contract ConditionalTokens",
          "name": "",
          "type": "address"
        }
      ],
      "stateMutability": "view",
      "type": "function"
    },
    {
      "inputs": [
        {
          "internalType": "bytes32",
          "name": "questionId",
          "type": "bytes32"
        },
        {
          "internalType": "address",
          "name": "priceFeed",
          "type": "address"
        },
        {
          "internalType": "uint256",
          "name": "targetValue",
          "type": "uint256"
        },
        {
          "internalType": "uint256",
          "name": "resolutionTime",
          "type": "uint256"
        }
      ],
      "name": "resolveMarket",
      "outputs": [],
      "stateMutability": "nonpayable",
      "type": "function"
    }
  ],
  "bytecode": "0x608060405234801561001057600080fd5b506040516105ed3803806105ed8339818101604052602081101561003357600080fd5b8101908080519060200190929190505050806000806101000a81548173ffffffffffffffffffffffffffffffffffffffff021916908373ffffffffffffffffffffffffffffffffffffffff16021790555050610559806100946000396000f3fe608060405234801561001057600080fd5b50600436106100365760003560e01c8063214c41bc1461003b5780634dac2f8714610085575b600080fd5b6100436100e7565b604051808273ffffffffffffffffffffffffffffffffffffffff1673ffffffffffffffffffffffffffffffffffffffff16815260200191505060405180910390f35b6100e56004803603608081101561009b57600080fd5b8101908080359060200190929190803573ffffffffffffffffffffffffffffffffffffffff169060200190929190803590602001909291908035906020019092919050505061010c565b005b6000809054906101000a900473ffffffffffffffffffffffffffffffffffffffff1681565b80421015610165576040517f08c379a000000000000000000000000000000000000000000000000000000000815260040180806020018281038252603b8152602001806104e9603b913960400191505060405180910390fd5b60006101708461045b565b9050606060026040519080825280602002602001820160405280156101a45781602001602082028038833980820191505090505b509050838211156102bf576001816000815181106101be57fe5b6020026020010181815250506000816001815181106101d957fe5b6020026020010181815250506000809054906101000a900473ffffffffffffffffffffffffffffffffffffffff1673ffffffffffffffffffffffffffffffffffffffff1663c49298ac87836040518363ffffffff1660e01b81526004018083815260200180602001828103825283818151815260200191508051906020019060200280838360005b8381101561027c578082015181840152602081019050610261565b505050509050019350505050600060405180830381600087803b1580156102a257600080fd5b505af11580156102b6573d6000803e3d6000fd5b505050506103cb565b6000816000815181106102ce57fe5b6020026020010181815250506001816001815181106102e957fe5b6020026020010181815250506000809054906101000a900473ffffffffffffffffffffffffffffffffffffffff1673ffffffffffffffffffffffffffffffffffffffff1663c49298ac87836040518363ffffffff1660e01b81526004018083815260200180602001828103825283818151815260200191508051906020019060200280838360005b8381101561038c578082015181840152602081019050610371565b505050509050019350505050600060405180830381600087803b1580156103b257600080fd5b505af11580156103c6573d6000803e3d6000fd5b505050505b7fdf2b4ca65fc52be6c18d3fd8b78dd737f8c3a39ca60912b4b9bc716ef33c02a28342836040518084815260200183815260200180602001828103825283818151815260200191508051906020019060200280838360005b8381101561043e578082015181840152602081019050610423565b5050505090500194505050505060405180910390a1505050505050565b60008173ffffffffffffffffffffffffffffffffffffffff166357de26a46040518163ffffffff1660e01b815260040160206040518083038186803b1580156104a357600080fd5b505afa1580156104b7573d6000803e3d6000fd5b505050506040513d60208110156104cd57600080fd5b810190808051906020019092919050505060001c905091905056fe506c65617365207375626d69742061207265736f6c7574696f6e20647572696e672074686520636f72726563742074696d6520696e74657276616ca264697066735822122099194c2b5c106cf0676e323eecd2a30fd28a98984100d46ad7209dabd5d0e37464736f6c63430006020033",
  "source": "pragma solidity ^0.6.0;\nimport { ConditionalTokens } from \"./ConditionalTokens.sol\";\n\ninterface IMakerPriceFeed {\n  function read() external view returns (bytes32);\n}\n\ncontract MakerAdapter {\n     ConditionalTokens public cTokens;\n   \n  \n\n    /// @dev Emitted upon the successful reporting of whether the actual value has exceeded target to the conditional tokens contract.\n    /// @param resolutionTime Beginning of time window in which valid reports may be generated. \n    /// @param currentTime Time at which this oracle made a determination of the value.\n    /// @param result The array of uints representing the result.\n    event ResolutionSuccessful(uint resolutionTime, uint currentTime, uint[] result);\n    \n    constructor (\n        ConditionalTokens _cTokens\n      \n    ) public {\n        cTokens = _cTokens;\n    \n       \n    }\n   ///@dev reads the price of the token\n   ///@param priceFeed address of relevant Maker DAO price feed \n   /// address ethUsdPriceFeed = 0x729D19f657BD0614b4985Cf1D82531c67569197B;\n  function getPrice(address priceFeed) internal view returns (uint) {\n    \n     return uint(\n      IMakerPriceFeed(priceFeed).read()\n    );\n    \n  }\n   ///@dev resolves market by getting price from feed, comparing to target value and calling Conditional Tokens reportPayouts\n    ///@param targetValue price to compare to current price\n    function resolveMarket(bytes32 questionId, address priceFeed, uint targetValue, uint resolutionTime) external {\n        require(\n            block.timestamp >= resolutionTime,\n            \"Please submit a resolution during the correct time interval\"\n        );\n\n        uint value = getPrice(priceFeed);\n        uint[] memory result = new uint[](2);\n        \n        if (value > targetValue) {\n              result[0] = 1;\n              result[1] = 0;\n              cTokens.reportPayouts(questionId, result);\n        } else {\n             result[0] = 0;\n             result[1] = 1;\n             cTokens.reportPayouts(questionId, result);\n        }\n        emit ResolutionSuccessful(resolutionTime, block.timestamp, result);\n    }\n  \n}",
  "sourcePath": "/home/chivoblack/projects/maker-adapter/contracts/MakerAdapter.sol",
  "compiler": {
    "name": "solc",
    "version": "0.6.2+commit.bacdbe57.Emscripten.clang"
  },
  "schemaVersion": "3.2.5",
  "updatedAt": "2020-11-04T23:00:50.807Z",
  "devdoc": {
    "methods": {
      "resolveMarket(bytes32,address,uint256,uint256)": {
        "details": "resolves market by getting price from feed, comparing to target value and calling Conditional Tokens reportPayouts",
        "params": {
          "targetValue": "price to compare to current price"
        }
      }
    }
  },
  "userdoc": {
    "methods": {}
  }
}