{
  "contractName": "MakerAdapter",
  "abi": [
    {
      "inputs": [
        {
          "internalType": "contract ConditionalTokens",
          "name": "_cTokens",
          "type": "address"
        }
      ],
      "stateMutability": "nonpayable",
      "type": "constructor"
    },
    {
      "anonymous": false,
      "inputs": [
        {
          "indexed": false,
          "internalType": "uint256",
          "name": "resolutionTime",
          "type": "uint256"
        },
        {
          "indexed": false,
          "internalType": "uint256",
          "name": "currentTime",
          "type": "uint256"
        },
        {
          "indexed": false,
          "internalType": "uint256[]",
          "name": "result",
          "type": "uint256[]"
        }
      ],
      "name": "ResolutionSuccessful",
      "type": "event"
    },
    {
      "inputs": [],
      "name": "cTokens",
      "outputs": [
        {
          "internalType": "contract ConditionalTokens",
          "name": "",
          "type": "address"
        }
      ],
      "stateMutability": "view",
      "type": "function"
    },
    {
      "inputs": [],
      "name": "getPrice",
      "outputs": [
        {
          "internalType": "uint256",
          "name": "",
          "type": "uint256"
        }
      ],
      "stateMutability": "view",
      "type": "function"
    },
    {
      "inputs": [
        {
          "internalType": "bytes32",
          "name": "questionId",
          "type": "bytes32"
        },
        {
          "internalType": "uint256",
          "name": "targetValue",
          "type": "uint256"
        },
        {
          "internalType": "uint256",
          "name": "resolutionTime",
          "type": "uint256"
        }
      ],
      "name": "resolveValue",
      "outputs": [],
      "stateMutability": "nonpayable",
      "type": "function"
    }
  ],
  "bytecode": "0x608060405234801561001057600080fd5b5060405161060b38038061060b8339818101604052602081101561003357600080fd5b8101908080519060200190929190505050806000806101000a81548173ffffffffffffffffffffffffffffffffffffffff021916908373ffffffffffffffffffffffffffffffffffffffff16021790555050610577806100946000396000f3fe608060405234801561001057600080fd5b50600436106100415760003560e01c8063214c41bc1461004657806398d5fdca14610090578063be91f157146100ae575b600080fd5b61004e6100f0565b604051808273ffffffffffffffffffffffffffffffffffffffff1673ffffffffffffffffffffffffffffffffffffffff16815260200191505060405180910390f35b610098610115565b6040518082815260200191505060405180910390f35b6100ee600480360360608110156100c457600080fd5b810190808035906020019092919080359060200190929190803590602001909291905050506101b9565b005b6000809054906101000a900473ffffffffffffffffffffffffffffffffffffffff1681565b60008073729d19f657bd0614b4985cf1d82531c67569197b90508073ffffffffffffffffffffffffffffffffffffffff166357de26a46040518163ffffffff1660e01b815260040160206040518083038186803b15801561017557600080fd5b505afa158015610189573d6000803e3d6000fd5b505050506040513d602081101561019f57600080fd5b810190808051906020019092919050505060001c91505090565b80421015610212576040517f08c379a000000000000000000000000000000000000000000000000000000000815260040180806020018281038252603b815260200180610507603b913960400191505060405180910390fd5b600061021c610115565b9050606060026040519080825280602002602001820160405280156102505781602001602082028038833980820191505090505b5090508382111561036b5760018160008151811061026a57fe5b60200260200101818152505060008160018151811061028557fe5b6020026020010181815250506000809054906101000a900473ffffffffffffffffffffffffffffffffffffffff1673ffffffffffffffffffffffffffffffffffffffff1663c49298ac86836040518363ffffffff1660e01b81526004018083815260200180602001828103825283818151815260200191508051906020019060200280838360005b8381101561032857808201518184015260208101905061030d565b505050509050019350505050600060405180830381600087803b15801561034e57600080fd5b505af1158015610362573d6000803e3d6000fd5b50505050610477565b60008160008151811061037a57fe5b60200260200101818152505060018160018151811061039557fe5b6020026020010181815250506000809054906101000a900473ffffffffffffffffffffffffffffffffffffffff1673ffffffffffffffffffffffffffffffffffffffff1663c49298ac86836040518363ffffffff1660e01b81526004018083815260200180602001828103825283818151815260200191508051906020019060200280838360005b8381101561043857808201518184015260208101905061041d565b505050509050019350505050600060405180830381600087803b15801561045e57600080fd5b505af1158015610472573d6000803e3d6000fd5b505050505b7fdf2b4ca65fc52be6c18d3fd8b78dd737f8c3a39ca60912b4b9bc716ef33c02a28342836040518084815260200183815260200180602001828103825283818151815260200191508051906020019060200280838360005b838110156104ea5780820151818401526020810190506104cf565b5050505090500194505050505060405180910390a1505050505056fe506c65617365207375626d69742061207265736f6c7574696f6e20647572696e672074686520636f72726563742074696d6520696e74657276616ca26469706673582212201faf82ea203cc3c25a881c8d95cdab7f1c66430f532b8b98f5598677abc3799e64736f6c63430006020033",
  "source": "pragma solidity ^0.6.0;\nimport { ConditionalTokens } from \"./ConditionalTokens.sol\";\n\ninterface IMakerPriceFeed {\n  function read() external view returns (bytes32);\n}\n\ncontract MakerAdapter {\n     ConditionalTokens public cTokens;\n   \n  \n\n    /// @dev Emitted upon the successful reporting of whether the actual value has exceeded target to the conditional tokens contract.\n    /// @param resolutionTime Beginning of time window in which valid reports may be generated. \n    /// @param currentTime Time at which this oracle made a determination of the value.\n    /// @param result The array of uints representing the result.\n    event ResolutionSuccessful(uint resolutionTime, uint currentTime, uint[] result);\n    \n    constructor (\n        ConditionalTokens _cTokens\n      \n    ) public {\n        cTokens = _cTokens;\n    \n       \n    }\n   ///@dev reads the price of the token\n  function getPrice() public view returns (uint) {\n    address ethUsdPriceFeed = 0x729D19f657BD0614b4985Cf1D82531c67569197B;\n     return uint(\n      IMakerPriceFeed(ethUsdPriceFeed).read()\n    );\n    \n  }\n\n    \n    function resolveValue(bytes32 questionId, uint targetValue, uint resolutionTime) external {\n        require(\n            block.timestamp >= resolutionTime,\n            \"Please submit a resolution during the correct time interval\"\n        );\n\n        uint value = getPrice();\n        uint[] memory result = new uint[](2);\n        \n        if (value > targetValue) {\n              result[0] = 1;\n              result[1] = 0;\n              cTokens.reportPayouts(questionId, result);\n        } else {\n             result[0] = 0;\n             result[1] = 1;\n             cTokens.reportPayouts(questionId, result);\n        }\n        emit ResolutionSuccessful(resolutionTime, block.timestamp, result);\n    }\n  \n}",
  "sourcePath": "/home/chivoblack/projects/maker-adapter/contracts/MakerAdapter.sol",
  "compiler": {
    "name": "solc",
    "version": "0.6.2+commit.bacdbe57.Emscripten.clang"
  },
  "schemaVersion": "3.2.5",
  "updatedAt": "2020-11-04T14:38:46.338Z",
  "devdoc": {
    "methods": {
      "getPrice()": {
        "details": "reads the price of the token"
      }
    }
  },
  "userdoc": {
    "methods": {}
  }
}