{
  "contractName": "MakerAdapter",
  "abi": [
    {
      "inputs": [
        {
          "internalType": "contract ConditionalTokens",
          "name": "_cTokens",
          "type": "address"
        }
      ],
      "stateMutability": "nonpayable",
      "type": "constructor"
    },
    {
      "anonymous": false,
      "inputs": [
        {
          "indexed": false,
          "internalType": "bytes32",
          "name": "conditionId",
          "type": "bytes32"
        },
        {
          "indexed": false,
          "internalType": "uint256",
          "name": "resolutionTime",
          "type": "uint256"
        },
        {
          "indexed": false,
          "internalType": "uint256",
          "name": "targetValue",
          "type": "uint256"
        },
        {
          "indexed": false,
          "internalType": "uint256",
          "name": "variation",
          "type": "uint256"
        }
      ],
      "name": "MarketPrepared",
      "type": "event"
    },
    {
      "anonymous": false,
      "inputs": [
        {
          "indexed": false,
          "internalType": "bytes32",
          "name": "questionId",
          "type": "bytes32"
        },
        {
          "indexed": false,
          "internalType": "bytes32",
          "name": "conditionId",
          "type": "bytes32"
        },
        {
          "indexed": false,
          "internalType": "uint256",
          "name": "resolutionTime",
          "type": "uint256"
        },
        {
          "indexed": false,
          "internalType": "uint256",
          "name": "currentTime",
          "type": "uint256"
        },
        {
          "indexed": false,
          "internalType": "uint256",
          "name": "value",
          "type": "uint256"
        },
        {
          "indexed": false,
          "internalType": "uint256[]",
          "name": "result",
          "type": "uint256[]"
        }
      ],
      "name": "ResolutionSuccessful",
      "type": "event"
    },
    {
      "inputs": [],
      "name": "cTokens",
      "outputs": [
        {
          "internalType": "contract ConditionalTokens",
          "name": "",
          "type": "address"
        }
      ],
      "stateMutability": "view",
      "type": "function"
    },
    {
      "inputs": [
        {
          "internalType": "bytes32",
          "name": "",
          "type": "bytes32"
        }
      ],
      "name": "markets",
      "outputs": [
        {
          "internalType": "address",
          "name": "makerPriceFeed",
          "type": "address"
        },
        {
          "internalType": "uint256",
          "name": "resolutionTime",
          "type": "uint256"
        },
        {
          "internalType": "uint256",
          "name": "targetValue",
          "type": "uint256"
        },
        {
          "internalType": "uint256",
          "name": "variation",
          "type": "uint256"
        }
      ],
      "stateMutability": "view",
      "type": "function"
    },
    {
      "inputs": [
        {
          "internalType": "bytes32",
          "name": "questionId",
          "type": "bytes32"
        },
        {
          "internalType": "address",
          "name": "makerPriceFeed",
          "type": "address"
        },
        {
          "internalType": "uint256",
          "name": "resolutionTime",
          "type": "uint256"
        },
        {
          "internalType": "uint256",
          "name": "targetValue",
          "type": "uint256"
        },
        {
          "internalType": "uint256",
          "name": "variation",
          "type": "uint256"
        }
      ],
      "name": "prepareMarket",
      "outputs": [],
      "stateMutability": "nonpayable",
      "type": "function"
    },
    {
      "inputs": [
        {
          "internalType": "bytes32",
          "name": "questionId",
          "type": "bytes32"
        }
      ],
      "name": "resolveMarket",
      "outputs": [],
      "stateMutability": "nonpayable",
      "type": "function"
    }
  ],
  "bytecode": "0x60a060405234801561001057600080fd5b50604051610faf380380610faf8339818101604052602081101561003357600080fd5b81019080805190602001909291905050508073ffffffffffffffffffffffffffffffffffffffff1660808173ffffffffffffffffffffffffffffffffffffffff1660601b815250505060805160601c610f026100ad6000398061021352806103d352806105e652806106fd52806108735250610f026000f3fe608060405234801561001057600080fd5b506004361061004c5760003560e01c8063063c929514610051578063214c41bc146100bd57806340672a1b146101075780637564912b14610135575b600080fd5b6100bb600480360360a081101561006757600080fd5b8101908080359060200190929190803573ffffffffffffffffffffffffffffffffffffffff1690602001909291908035906020019092919080359060200190929190803590602001909291905050506101b8565b005b6100c56103d1565b604051808273ffffffffffffffffffffffffffffffffffffffff1673ffffffffffffffffffffffffffffffffffffffff16815260200191505060405180910390f35b6101336004803603602081101561011d57600080fd5b81019080803590602001909291905050506103f5565b005b6101616004803603602081101561014b57600080fd5b8101908080359060200190929190505050610a08565b604051808573ffffffffffffffffffffffffffffffffffffffff1673ffffffffffffffffffffffffffffffffffffffff16815260200184815260200183815260200182815260200194505050505060405180910390f35b42831015610211576040517f08c379a000000000000000000000000000000000000000000000000000000000815260040180806020018281038252602d815260200180610e7f602d913960400191505060405180910390fd5b7f000000000000000000000000000000000000000000000000000000000000000073ffffffffffffffffffffffffffffffffffffffff1663d96ee754308760026040518463ffffffff1660e01b8152600401808473ffffffffffffffffffffffffffffffffffffffff1673ffffffffffffffffffffffffffffffffffffffff1681526020018381526020018281526020019350505050600060405180830381600087803b1580156102c157600080fd5b505af11580156102d5573d6000803e3d6000fd5b505050508360008087815260200190815260200160002060000160006101000a81548173ffffffffffffffffffffffffffffffffffffffff021916908373ffffffffffffffffffffffffffffffffffffffff1602179055508260008087815260200190815260200160002060010181905550816000808781526020019081526020016000206002018190555080600080878152602001908152602001600020600301819055507ff3837e3bd8d5becf241544eee4da3a6bab9f3e82bb206e8d683cebb5ca44ab3a858484846040518085815260200184815260200183815260200182815260200194505050505060405180910390a15050505050565b7f000000000000000000000000000000000000000000000000000000000000000081565b42600080838152602001908152602001600020600101541115610480576040517f08c379a000000000000000000000000000000000000000000000000000000000815260040180806020018281038252601f8152602001807f7265736f6c7574696f6e2077696e646f7720686173206e6f7420626567756e0081525060200191505060405180910390fd5b600061048e30836002610a58565b905060006104d060008085815260200190815260200160002060000160009054906101000a900473ffffffffffffffffffffffffffffffffffffffff16610ac9565b905060006105116000808681526020019081526020016000206003015460008087815260200190815260200160002060020154610b5690919063ffffffff16565b905060006105526000808781526020019081526020016000206003015460008088815260200190815260200160002060020154610ba090919063ffffffff16565b90506000606490506060600267ffffffffffffffff8111801561057457600080fd5b506040519080825280602002602001820160405280156105a35781602001602082028036833780820191505090505b509050838510156106bd576001816000815181106105bd57fe5b6020026020010181815250506000816001815181106105d857fe5b6020026020010181815250507f000000000000000000000000000000000000000000000000000000000000000073ffffffffffffffffffffffffffffffffffffffff1663c49298ac88836040518363ffffffff1660e01b81526004018083815260200180602001828103825283818151815260200191508051906020019060200280838360005b8381101561067a57808201518184015260208101905061065f565b505050509050019350505050600060405180830381600087803b1580156106a057600080fd5b505af11580156106b4573d6000803e3d6000fd5b5050505061094a565b828511156107d4576000816000815181106106d457fe5b6020026020010181815250506001816001815181106106ef57fe5b6020026020010181815250507f000000000000000000000000000000000000000000000000000000000000000073ffffffffffffffffffffffffffffffffffffffff1663c49298ac88836040518363ffffffff1660e01b81526004018083815260200180602001828103825283818151815260200191508051906020019060200280838360005b83811015610791578082015181840152602081019050610776565b505050509050019350505050600060405180830381600087803b1580156107b757600080fd5b505af11580156107cb573d6000803e3d6000fd5b50505050610949565b60006107fb836107ed8789610b5690919063ffffffff16565b610c2890919063ffffffff16565b905060006108128686610b5690919063ffffffff16565b905060006108298284610cae90919063ffffffff16565b905061083e8186610b5690919063ffffffff16565b8460008151811061084b57fe5b602002602001018181525050808460018151811061086557fe5b6020026020010181815250507f000000000000000000000000000000000000000000000000000000000000000073ffffffffffffffffffffffffffffffffffffffff1663c49298ac8b866040518363ffffffff1660e01b81526004018083815260200180602001828103825283818151815260200191508051906020019060200280838360005b838110156109075780820151818401526020810190506108ec565b505050509050019350505050600060405180830381600087803b15801561092d57600080fd5b505af1158015610941573d6000803e3d6000fd5b505050505050505b5b7f2fbfa6733773fc80a7e4d52d20c0b04285fd05c4b6390916e33be10a718daf6187876000808b8152602001908152602001600020600101544289866040518087815260200186815260200185815260200184815260200183815260200180602001828103825283818151815260200191508051906020019060200280838360005b838110156109e75780820151818401526020810190506109cc565b5050505090500197505050505050505060405180910390a150505050505050565b60006020528060005260406000206000915090508060000160009054906101000a900473ffffffffffffffffffffffffffffffffffffffff16908060010154908060020154908060030154905084565b6000838383604051602001808473ffffffffffffffffffffffffffffffffffffffff1673ffffffffffffffffffffffffffffffffffffffff1660601b815260140183815260200182815260200193505050506040516020818303038152906040528051906020012090509392505050565b60008173ffffffffffffffffffffffffffffffffffffffff166357de26a46040518163ffffffff1660e01b815260040160206040518083038186803b158015610b1157600080fd5b505afa158015610b25573d6000803e3d6000fd5b505050506040513d6020811015610b3b57600080fd5b810190808051906020019092919050505060001c9050919050565b6000610b9883836040518060400160405280601e81526020017f536166654d6174683a207375627472616374696f6e206f766572666c6f770000815250610cf8565b905092915050565b600080828401905083811015610c1e576040517f08c379a000000000000000000000000000000000000000000000000000000000815260040180806020018281038252601b8152602001807f536166654d6174683a206164646974696f6e206f766572666c6f77000000000081525060200191505060405180910390fd5b8091505092915050565b600080831415610c3b5760009050610ca8565b6000828402905082848281610c4c57fe5b0414610ca3576040517f08c379a0000000000000000000000000000000000000000000000000000000008152600401808060200182810382526021815260200180610eac6021913960400191505060405180910390fd5b809150505b92915050565b6000610cf083836040518060400160405280601a81526020017f536166654d6174683a206469766973696f6e206279207a65726f000000000000815250610db8565b905092915050565b6000838311158290610da5576040517f08c379a00000000000000000000000000000000000000000000000000000000081526004018080602001828103825283818151815260200191508051906020019080838360005b83811015610d6a578082015181840152602081019050610d4f565b50505050905090810190601f168015610d975780820380516001836020036101000a031916815260200191505b509250505060405180910390fd5b5060008385039050809150509392505050565b60008083118290610e64576040517f08c379a00000000000000000000000000000000000000000000000000000000081526004018080602001828103825283818151815260200191508051906020019080838360005b83811015610e29578082015181840152602081019050610e0e565b50505050905090810190601f168015610e565780820380516001836020036101000a031916815260200191505b509250505060405180910390fd5b506000838581610e7057fe5b04905080915050939250505056fe506c65617365207375626d69742061207265736f6c7574696f6e2074696d6520696e2074686520667574757265536166654d6174683a206d756c7469706c69636174696f6e206f766572666c6f77a2646970667358221220c61389783bb2a406668f3348d4a31c13c3cc357cde62145381c096b921bbf47964736f6c63430006050033",
  "immutableReferences": {
    "1377": [
      {
        "length": 32,
        "start": 531
      },
      {
        "length": 32,
        "start": 979
      },
      {
        "length": 32,
        "start": 1510
      },
      {
        "length": 32,
        "start": 1789
      },
      {
        "length": 32,
        "start": 2163
      }
    ]
  },
  "source": "// SPDX-License-Identifier: MIT\npragma solidity ^0.6.0;\nimport { ConditionalTokens } from \"./ConditionalTokens.sol\";\nimport { SafeMath } from \"./SafeMath.sol\";\nimport { CTHelpers } from \"./CTHelpers.sol\";\n\n///@dev interface to read price oracles\ninterface IMakerPriceFeed {\n  function read() external view returns (bytes32);\n}\n\n//Kovan address 0xAdf49005A69AA892572C7d27b6Dc8C0409cc0E3d\ncontract MakerAdapter {\n     using SafeMath for uint256;\n     ConditionalTokens public immutable cTokens;\n      \n      \n    /// Mapping key is a questionId. Value is struct containing market values\n    mapping(bytes32 => Market) public markets;\n     struct  Market {\n        address makerPriceFeed;\n        uint resolutionTime;\n        uint targetValue;\n        uint variation;\n    }\n    \n\n    /// @dev Emitted upon the successful reporting of whether the actual value has exceeded target to the conditional tokens contract.\n \n    event ResolutionSuccessful(bytes32 questionId, bytes32 conditionId, uint resolutionTime, uint currentTime, uint value, uint[] result);\n    \n    ///@dev Emitted upon market preparation\n  \n    event MarketPrepared(bytes32 conditionId, uint resolutionTime, uint targetValue, uint variation);\n    \n   \n    \n    /// @param _cTokens address of conditional tokens contract to be used\n    //Kovan ConditionalTokens Address 0xf09F9DD23147E5B4139545Bc9ECf282922ec0a1D\n    constructor (ConditionalTokens _cTokens) public {\n        cTokens = _cTokens;\n    \n       \n    }\n \n    ///@dev Function defines values to be used for market resolution.\n    ///@param questionId  bytes32 identifier for the question to be resolved\n    ///@param makerPriceFeed address of token price oracle.\n    /* Available Feeds\n       BALUSD = 0x0C472661dde5B08BEee6a7F8266720ea445830a3\n       BATUSD = 0xAb7366b12C982ca2DE162F35571b4d21E38a16FB\n       BTCUSD = 0xe0F30cb149fAADC7247E953746Be9BbBB6B5751f\n       COMPUSD = 0x18746A1CED49Ff06432400b8EdDcf77876EcA6f8\n       ETHBTC = 0xF60df9B138A00Ae8DBD07F55fd2305CC791e68cc\n       ETHUSD = 0x0E30F0FC91FDbc4594b1e2E5d64E6F1f94cAB23D\n       KNCUSD = 0x4C511ae3FFD63c0DE35D4A138Ff2b584FF450466\n       LINKUSD = 0x7cb395DF9f1534cF528470e2F1AE2D1867d6253f\n       LRCUSD = 0x2aab6aDb9d202e411D2B29a6be1da80F648230f2\n       PAXGUSD = 0xE2E348d6f48E51d194f401bad2840ef164d278e2 (activates soon)\n       USDTUSD = 0x074EcAe0CD5c37f59D9b91E2994407418aCe05B7\n       YFIUSD = 0x67E681d202cf86287Bb088902B89CC66F1A075D4\n       ZRXUSD = 0x1A6b4f516d61c73f568ff0Da15891e670eBc1afb*/\n    ///@param resolutionTime timestamp of start of valid market resolution window\n    ///@param targetValue predicted token price\n    ///@param variation  To define a binary market set to 0. To define a scalar market set to desired plus and minus range. Bounds are equal to targetValue +- variation.\n  function prepareMarket(bytes32 questionId,  address makerPriceFeed, uint resolutionTime, uint targetValue, uint variation) external {\n      require(resolutionTime >= block.timestamp,  \"Please submit a resolution time in the future\");\n      cTokens.prepareCondition(address(this), questionId, 2);\n      markets[questionId].makerPriceFeed = makerPriceFeed;\n      markets[questionId].resolutionTime = resolutionTime;\n      markets[questionId].targetValue = targetValue;\n      markets[questionId].variation = variation;\n      \n      \n      \n       emit MarketPrepared(questionId, resolutionTime, targetValue, variation);\n  }\n   ///@dev reads the price of the token\n   ///@param makerPriceFeed address of relevant Maker DAO price feed. Defined at market preparation. \n   \n  function getPrice(address makerPriceFeed) internal view returns (uint) {\n    \n       return uint(\n      IMakerPriceFeed(makerPriceFeed).read()\n    );\n    \n  }\n    ///@dev resolves market by getting price from feed, comparing to target value and calling Conditional Tokens reportPayouts function with an array of uints representing payout numerators.\n    ///@param questionId used in market preparation\n  \n    function resolveMarket(bytes32 questionId) external {\n      require(markets[questionId].resolutionTime <= block.timestamp, \"resolution window has not begun\");\n      bytes32 conditionId = CTHelpers.getConditionId(address(this), questionId, 2);\n      \n        ///@param value oracle's response\n        uint value = getPrice(markets[questionId].makerPriceFeed);\n       \n        uint lowerBound = markets[questionId].targetValue.sub(markets[questionId].variation);\n        uint upperBound =  markets[questionId].targetValue.add(markets[questionId].variation);\n        uint hundred = 100;\n        uint[] memory result = new uint[](2);\n        /// if value is lower than lower bound pays 100% to short position and 0 to long.\n        if (value < lowerBound) {\n              result[0] = 1;\n              result[1] = 0;\n          cTokens.reportPayouts(questionId, result);\n        } \n        /// if value is higher than higher bound pays 100% to long position and 0 to short.\n        else if (value > upperBound) {\n             result[0] = 0;\n             result[1] = 1;\n         cTokens.reportPayouts(questionId, result);\n        } \n        /// Finds where in the range defined by upper and lower bounds the price value falls and determines proportional payouts.\n          else  {\n            uint ratio = value.sub(lowerBound).mul(hundred);\n            uint range = upperBound.sub(lowerBound);\n            uint longPayout = ratio.div(range);\n            result[0] = hundred.sub(longPayout);\n            result[1] = longPayout;\n        cTokens.reportPayouts(questionId, result);\n        }\n        \n        emit ResolutionSuccessful(questionId, conditionId, markets[questionId].resolutionTime, block.timestamp, value, result);\n\n    }\n  \n}",
  "sourcePath": "/home/chivoblack/projects/maker-adapter/contracts/MakerAdapter.sol",
  "compiler": {
    "name": "solc",
    "version": "0.6.5+commit.f956cc89.Emscripten.clang"
  },
  "schemaVersion": "3.2.5",
  "updatedAt": "2020-11-13T02:52:27.594Z",
  "devdoc": {
    "methods": {
      "constructor": {
        "params": {
          "_cTokens": "address of conditional tokens contract to be used"
        }
      },
      "prepareMarket(bytes32,address,uint256,uint256,uint256)": {
        "params": {
          "resolutionTime": "timestamp of start of valid market resolution window",
          "targetValue": "predicted token price",
          "variation": "To define a binary market set to 0. To define a scalar market set to desired plus and minus range. Bounds are equal to targetValue +- variation."
        }
      },
      "resolveMarket(bytes32)": {
        "details": "resolves market by getting price from feed, comparing to target value and calling Conditional Tokens reportPayouts function with an array of uints representing payout numerators.",
        "params": {
          "questionId": "used in market preparation"
        }
      }
    }
  },
  "userdoc": {
    "methods": {}
  }
}